:020000040800F2
:1000000000280020F1040008950400089B04000863
:10001000A1040008A7040008AD04000800000000C7
:10002000000000000000000000000000B304000811
:10003000BF04000800000000CB040008D70400083B
:100040003905000839050008390500083905000898
:100050003905000839050008390500083905000888
:100060003905000839050008390500083905000878
:100070003905000839050008390500083905000868
:100080003905000839050008390500083905000858
:100090003905000839050008390500083905000848
:1000A0003905000839050008390500083905000838
:1000B000390500083905000800000000390500086E
:1000C00039050008000000000000000039050008A4
:1000D0000000000039050008390500080000000094
:1000E000390500083905000839050008000000003E
:1000F0000000000000000000000000000000000000
:0C01000000000000000000005FF808F1A3
:10010C0010B5054C237833B9044B13B10448AFF345
:10011C0000800123237010BD0C00002000000000A3
:10012C004813000808B5034B1BB103490348AFF350
:10013C00008008BD000000001000002048130008DB
:10014C0080B500AF00F0F4F900F098F800F0DCF89E
:10015C004FF40051464800F0ADFC0346002B06D08E
:10016C00444BDB68434A43F02003D36005E0414B2A
:10017C00DB68404A83F02003D3604FF480413C4855
:10018C0000F098FC0346002B06D03A4BDB68394A4A
:10019C0043F04003D36005E0364BDB68354A83F00F
:1001AC004003D3604FF40041314800F083FC034618
:1001BC00002B06D02F4BDB682E4A43F08003D36014
:1001CC0005E02C4BDB682B4A83F08003D3600121C4
:1001DC00284800F06FFC0346002B06D0264BDB684A
:1001EC00254A43F00103D36005E0234BDB68224A28
:1001FC0083F00103D36002211E4800F05BFC034630
:10020C00002B06D01C4BDB681B4A43F00203D36067
:10021C0005E0194BDB68184A83F00203D360042114
:10022C00144800F047FC0346002B06D0124BDB6849
:10023C00114A43F48063D36005E00F4BDB680E4A30
:10024C0083F48063D36008210A4800F033FC034632
:10025C00002B06D0084BDB68074A43F40063D360DD
:10026C0076E7054BDB68044A83F40063D3606FE7E1
:10027C000010014000080140000C014080B590B016
:10028C0000AF07F1180328220021184601F04EF8A0
:10029C003B1D00221A605A609A60DA601A610123D1
:1002AC00BB614FF48033FB6100233B620123BB62D3
:1002BC0002237B634FF48033BB634FF4E013FB6387
:1002CC0007F11803184600F025FC0346002B01D05B
:1002DC0000F0A2F80F237B600223BB600023FB60BD
:1002EC004FF480633B6100237B613B1D0221184668
:1002FC0000F092FE0346002B01D000F08DF800BFF9
:10030C004037BD4680BD000080B588B000AF07F116
:10031C00100300221A605A609A60DA603A4B9B69AB
:10032C00394A43F010039361374B9B6903F0100378
:10033C00FB60FB68344B9B69334A43F020039361A9
:10034C00314B9B6903F02003BB60BB682E4B9B6950
:10035C002D4A43F0040393612B4B9B6903F0040378
:10036C007B607B68284B9B69274A43F008039361A9
:10037C00254B9B6903F008033B603B68002220215E
:10038C00224800F0AEFB002240F6C341204800F0AA
:10039C00A8FB4FF460433B6100237B610023BB61EE
:1003AC0007F1100319461B4800F008FA1F233B61A4
:1003BC0000237B610023BB6107F11003194613482E
:1003CC0000F0FCF920233B6101237B610023BB611E
:1003DC000223FB6107F1100319460C4800F0EEF9FB
:1003EC0040F6C3433B6101237B610023BB610223C5
:1003FC00FB6107F110031946054800F0DFF900BF57
:10040C002037BD4680BD00BF0010024000080140EF
:10041C00000C01400010014080B400AF72B600BF68
:10042C00FEE7000080B485B000AF154B9B69144A01
:10043C0043F001039361124B9B6903F00103BB6012
:10044C00BB680F4BDB690E4A43F08053D3610C4BF6
:10045C00DB6903F080537B607B680A4B5B68FB6055
:10046C00FB6823F0E063FB60FB6843F00073FB6008
:10047C00044AFB68536000BF1437BD4680BC70470C
:10048C00001002400000014080B400AFFEE780B4D1
:10049C0000AFFEE780B400AFFEE780B400AFFEE72C
:1004AC0080B400AFFEE780B400AF00BFBD4680BC97
:1004BC00704780B400AF00BFBD4680BC704780B4AD
:1004CC0000AF00BFBD4680BC704780B500AF00F0E8
:1004DC0075F800BF80BD80B400AF00BFBD4680BCC6
:1004EC00704700000C480D490D4A002302E0D45817
:1004FC00C4500433C4188C42F9D30A4A0A4C002362
:10050C0001E013600432A242FBD3FFF7E4FF00F0DA
:10051C00E9FEFFF715FE7047000000200C000020DC
:10052C00881300080C0000202C000020FEE70000BF
:10053C0080B500AF084B1B68074A43F010031360EB
:10054C00032000F007F90F2000F008F8FFF76AFF0E
:10055C000023184680BD00BF0020024080B582B049
:10056C0000AF7860124B1A68124B1B7819464FF487
:10057C007A73B3FBF1F3B2FBF3F3184600F011F905
:10058C000346002B01D001230EE07B680F2B0AD809
:10059C00002279684FF0FF3000F0E7F8064A7B68DC
:1005AC001360002300E0012318460837BD4680BDC8
:1005BC0000000020080000200400002080B400AFE0
:1005CC00054B1B781A46054B1B681344034A1360F2
:1005DC0000BFBD4680BC70470800002028000020EA
:1005EC0080B400AF024B1B681846BD4680BC7047F8
:1005FC002800002080B485B000AF78607B6803F0E1
:10060C000703FB600C4BDB68BB60BA684FF6FF035B
:10061C001340BB60FB681A02BB68134343F0BF6313
:10062C0043F40033BB60044ABB68D36000BF14378B
:10063C00BD4680BC704700BF00ED00E080B400AF49
:10064C00044BDB681B0A03F007031846BD4680BC4D
:10065C00704700BF00ED00E080B483B000AF0346EC
:10066C003960FB7197F90730002B0ADB3B68DAB273
:10067C000C4997F907301201D2B20B4483F80023CE
:10068C000AE03B68DAB20849FB7903F00F03043B3C
:10069C001201D2B20B441A7600BF0C37BD4680BC97
:1006AC00704700BF00E100E000ED00E080B489B0CD
:1006BC0000AFF860B9607A60FB6803F00703FB6178
:1006CC00FB69C3F10703042B28BF0423BB61FB693F
:1006DC000433062B02D9FB69033B00E000237B614A
:1006EC004FF0FF32BB6902FA03F3DA43BB681A40DE
:1006FC007B699A404FF0FF317B6901FA03F3D943D0
:10070C007B680B40134318462437BD4680BC7047AA
:10071C0080B582B000AF78607B68013BB3F1807F1D
:10072C0001D301230FE00A4A7B68013B53600F2180
:10073C004FF0FF30FFF790FF054B00229A60044BFF
:10074C0007221A60002318460837BD4680BD00BF3B
:10075C0010E000E080B582B000AF78607868FFF7F9
:10076C0049FF00BF0837BD4680BD80B586B000AFDD
:10077C000346B9607A60FB7300237B61FFF75EFF71
:10078C0078617A68B9687869FFF790FF024697F943
:10079C000F3011461846FFF75FFF00BF1837BD46F4
:1007AC0080BD80B582B000AF78607868FFF7B0FF8D
:1007BC00034618460837BD4680BD000080B48BB098
:1007CC0000AF7860396000237B6200233B6261E1FB
:1007DC0001227B6A02FA03F3FB613B681B68FA692E
:1007EC001340BB61BA69FB699A4240F050813B6887
:1007FC005B68974A93425ED0954A934275D8954A66
:10080C00934258D0934A93426FD8934A934252D012
:10081C00914A934269D8914A93424CD08F4A934261
:10082C0063D88F4A934246D08D4A93425DD8122B9F
:10083C002AD8122B59D801A252F823F0C308000869
:10084C009D080008AF080008F1080008F708000828
:10085C00F7080008F7080008F7080008F708000870
:10086C00F7080008F7080008F7080008F708000860
:10087C00F7080008F7080008F7080008F708000850
:10088C00A5080008B9080008764A934213D02CE05A
:10089C003B68DB683B6229E03B68DB6804333B6206
:1008AC0024E03B68DB6808333B621FE03B68DB6895
:1008BC000C333B621AE03B689B68002B02D104238B
:1008CC003B6213E03B689B68012B05D108233B621C
:1008DC007B68FA691A6109E008233B627B68FA6954
:1008EC005A6103E000233B6200E000BFBB69FF2BB1
:1008FC0001D87B6801E07B6804337B61BB69FF2B0B
:10090C0002D87B6A9B0002E07B6A083B9B003B6140
:10091C007B691A680F213B6901FA03F3DB431A4028
:10092C00396A3B6901FA03F31A437B691A603B6825
:10093C005B6803F08053002B00F0A9804A4B9B6945
:10094C00494A43F001039361474B9B6903F0010350
:10095C00BB60BB68454A7B6A9B08023352F8233064
:10096C00FB607B6A03F003039B000F2202FA03F384
:10097C00DB43FA681340FB607B683D4A93420DD021
:10098C007B683C4A934207D07B683B4A934201D137
:10099C00022304E0032302E0012300E000237A6A2F
:1009AC0002F0030292009340FA681343FB602F4954
:1009BC007B6A9B080233FA6841F823203B685B682A
:1009CC0003F48033002B06D02C4B1A682B49BB69DF
:1009DC0013430B6006E0294B1A68BB69DB432749BC
:1009EC0013400B603B685B6803F40033002B06D0AC
:1009FC00224B5A682149BB6913434B6006E01F4BDD
:100A0C005A68BB69DB431D4913404B603B685B680C
:100A1C0003F48013002B06D0184B9A681749BB6956
:100A2C0013438B6006E0154B9A68BB69DB43134993
:100A3C0013408B603B685B6803F40013002B1FD0E2
:100A4C000E4BDA680D49BB691343CB601FE000BF46
:100A5C0000003210000031100000221000002110A4
:100A6C0000001210000011100010024000000140A4
:100A7C0000080140000C014000100140000401403E
:100A8C000B4BDA68BB69DB4309491340CB607B6ACB
:100A9C0001337B623B681A687B6A22FA03F3002BF2
:100AAC007FF496AE00BF00BF2C37BD4680BC7047AC
:100ABC000004014080B485B000AF78600B467B80A9
:100ACC007B689A687B881340002B02D00123FB7350
:100ADC0001E00023FB73FB7B18461437BD4680BC3A
:100AEC00704780B483B000AF78600B467B801346B0
:100AFC007B707B78002B03D07A887B681A6103E0CB
:100B0C007B881A047B681A6100BF0C37BD4680BC19
:100B1C007047000080B586B000AF78607B68002B12
:100B2C0001D1012372E27B681B6803F00103002BE7
:100B3C0000F08780924B5B6803F00C03042B0CD005
:100B4C008F4B5B6803F00C03082B12D18C4B5B684A
:100B5C0003F48033B3F5803F0BD1894B1B6803F44E
:100B6C000033002B6CD07B685B68002B68D10123B1
:100B7C004CE27B685B68B3F5803F06D1804B1B6809
:100B8C007F4A43F4803313602EE07B685B68002B54
:100B9C000CD17B4B1B687A4A23F480331360784B5F
:100BAC001B68774A23F4802313601DE07B685B6825
:100BBC00B3F5A02F0CD1724B1B68714A43F4802300
:100BCC0013606F4B1B686E4A43F4803313600BE069
:100BDC006B4B1B686A4A23F480331360684B1B68A9
:100BEC00674A23F4802313607B685B68002B13D067
:100BFC00FFF7F6FC386108E0FFF7F2FC02463B69B0
:100C0C00D31A642B01D9032300E25D4B1B6803F458
:100C1C000033002BF0D014E0FFF7E2FC386108E061
:100C2C00FFF7DEFC02463B69D31A642B01D9032380
:100C3C00ECE1534B1B6803F40033002BF0D100E0C4
:100C4C0000BF7B681B6803F00203002B63D04C4B86
:100C5C005B6803F00C03002B0BD0494B5B6803F073
:100C6C000C03082B1CD1464B5B6803F48033002B20
:100C7C0016D1434B1B6803F00203002B05D07B6895
:100C8C001B69012B01D00123C0E13D4B1B6823F0F4
:100C9C00F8027B685B69DB00394913430B603AE06F
:100CAC007B681B69002B20D0364B01221A60FFF7A2
:100CBC0097FC386108E0FFF793FC02463B69D31AB6
:100CCC00022B01D90323A1E12D4B1B6803F0020376
:100CDC00002BF0D02A4B1B6823F0F8027B685B6971
:100CEC00DB00274913430B6015E0264B00221A60EA
:100CFC00FFF776FC386108E0FFF772FC02463B69AF
:100D0C00D31A022B01D9032380E11D4B1B6803F07E
:100D1C000203002BF0D17B681B6803F00803002B47
:100D2C003AD07B689B69002B19D0174B01221A60B3
:100D3C00FFF756FC386108E0FFF752FC02463B69AE
:100D4C00D31A022B01D9032360E10D4B5B6A03F02C
:100D5C000203002BF0D0012000F0A6FA1CE00A4B95
:100D6C0000221A60FFF73CFC38610FE0FFF738FCFB
:100D7C0002463B69D31A022B08D9032346E100BF74
:100D8C00001002400000424280044242924B5B6AD7
:100D9C0003F00203002BE9D17B681B6803F004030A
:100DAC00002B00F0A6800023FB758B4BDB6903F056
:100DBC008053002B0DD1884BDB69874A43F080535D
:100DCC00D361854BDB6903F08053BB60BB680123A7
:100DDC00FB75824B1B6803F48073002B18D17F4B7F
:100DEC001B687E4A43F480731360FFF7F9FB38618C
:100DFC0008E0FFF7F5FB02463B69D31A642B01D9D7
:100E0C00032303E1754B1B6803F48073002BF0D0B4
:100E1C007B68DB68012B06D16F4B1B6A6E4A43F073
:100E2C00010313622DE07B68DB68002B0CD16A4B4D
:100E3C001B6A694A23F001031362674B1B6A664AFB
:100E4C0023F0040313621CE07B68DB68052B0CD1D8
:100E5C00614B1B6A604A43F0040313625E4B1B6ACE
:100E6C005D4A43F0010313620BE05B4B1B6A5A4A69
:100E7C0023F001031362584B1B6A574A23F00403F7
:100E8C0013627B68DB68002B15D0FFF7A9FB386178
:100E9C000AE0FFF7A5FB02463B69D31A41F2883200
:100EAC00934201D90323B1E04B4B1B6A03F00203BD
:100EBC00002BEED014E0FFF793FB38610AE0FFF74C
:100ECC008FFB02463B69D31A41F28832934201D917
:100EDC0003239BE0404B1B6A03F00203002BEED173
:100EEC00FB7D012B05D13C4BDB693B4A23F0805346
:100EFC00D3617B68DB69002B00F08780364B5B6825
:100F0C0003F00C03082B61D07B68DB69022B46D104
:100F1C00334B00221A60FFF763FB386108E0FFF7E0
:100F2C005FFB02463B69D31A022B01D903236DE008
:100F3C00294B1B6803F00073002BF0D17B681B6AF4
:100F4C00B3F5803F08D1244B5B6823F400327B68F7
:100F5C009B68214913434B601F4B5B6823F474124D
:100F6C007B68196A7B685B6A0B431B4913434B60B4
:100F7C001B4B01221A60FFF733FB386108E0FFF7C7
:100F8C002FFB02463B69D31A022B01D903233DE008
:100F9C00114B1B6803F00073002BF0D035E0104BA5
:100FAC0000221A60FFF71CFB386108E0FFF718FB02
:100FBC0002463B69D31A022B01D9032326E0064BC8
:100FCC001B6803F00073002BF0D11EE07B68DB691B
:100FDC00012B07D1012319E00010024000700040E2
:100FEC00600042420B4B5B68FB60FB6803F4803291
:100FFC007B681B6A9A4206D1FB6803F470127B680B
:10100C005B6A9A4201D0012300E00023184618378E
:10101C00BD4680BD0010024080B584B000AF786042
:10102C0039607B68002B01D10123D0E06A4B1B682F
:10103C0003F007033A689A4210D9674B1B6823F0F8
:10104C00070265493B6813430B60634B1B6803F055
:10105C0007033A689A4201D00123B8E07B681B6809
:10106C0003F00203002B20D07B681B6803F0040301
:10107C00002B05D0594B5B68584A43F4E06353602E
:10108C007B681B6803F00803002B05D0534B5B688F
:10109C00524A43F460535360504B5B6823F0F002A8
:1010AC007B689B684D4913434B607B681B6803F05E
:1010BC000103002B40D07B685B68012B07D1474BA9
:1010CC001B6803F40033002B15D101237FE07B68F0
:1010DC005B68022B07D1414B1B6803F00073002B9C
:1010EC0009D1012373E03D4B1B6803F00203002B75
:1010FC0001D101236BE0394B5B6823F003027B6861
:10110C005B68364913434B60FFF76AFAF8600AE0F4
:10111C00FFF766FA0246FB68D31A41F28832934213
:10112C0001D9032353E02D4B5B6803F00C027B6861
:10113C005B689B009A42EBD1274B1B6803F00703BB
:10114C003A689A4210D2244B1B6823F007022249BA
:10115C003B6813430B60204B1B6803F007033A6892
:10116C009A4201D0012332E07B681B6803F0040330
:10117C00002B08D0194B5B6823F4E0627B68DB68BA
:10118C00164913434B607B681B6803F00803002B64
:10119C0009D0124B5B6823F460527B681B69DB003F
:1011AC000E4913434B6000F021F802460B4B5B6871
:1011BC001B0903F00F030A49CB5C22FA03F3094A1B
:1011CC001360094B1B681846FFF7C8F90023184633
:1011DC001037BD4680BD00BF002002400010024009
:1011EC0070130008000000200400002090B48AB0A6
:1011FC0000AF294B3C1D0FCB84E80F0040F20123BC
:10120C003B800023FB610023BB6100237B62002336
:10121C007B6100233B62214B5B68FB61FB6903F044
:10122C000C03042B02D0082B03D02BE01C4B3B628D
:10123C002BE0FB699B0C03F00F0328333B4413F8A2
:10124C00243C7B61FB6903F48033002B12D0134BDD
:10125C005B685B0C03F0010328333B4413F8283C18
:10126C00BB617B690E4A03FB02F2BB69B2FBF3F371
:10127C007B6204E07B690B4A02FB03F37B627B6AB3
:10128C003B6202E0064B3B6200BF3B6A18462837C4
:10129C00BD4690BC704700BF6013000800100240B0
:1012AC0000127A0000093D0080B485B000AF786070
:1012BC000A4B1B680A4AA2FB03235B0A7A6802FBEF
:1012CC0003F3FB6000BFFB685A1EFA60002BF9D1D8
:1012DC0000BF00BF1437BD4680BC70470000002023
:1012EC00D34D621070B500260C4D0D4C641BA41030
:1012FC00A64209D100F022F800260A4D0A4C641BC4
:10130C00A410A64205D170BD55F8043B9847013690
:10131C00EEE755F8043B98470136F2E780130008D6
:10132C00801300088013000884130008034602444D
:10133C00934200D1704703F8011BF9E7F8B500BFE1
:10134C00F8BC08BC9E467047F8B500BFF8BC08BC9A
:04135C009E467047F2
:1013600002030405060708090A0B0C0D0E0F1010E6
:101370000000000000000000010203040607080945
:04138000310100082F
:041384000D0100084F
:0C1388000024F400100000000100000030
:04000005080004F1FA
:00000001FF
