:020000040800F2
:1000000000280020F90500089D050008A305000848
:10001000A9050008AF050008B505000800000000AC
:10002000000000000000000000000000BB05000808
:10003000C705000800000000D3050008DF05000820
:100040004106000841060008410600084106000874
:100050004106000841060008410600084106000864
:100060004106000841060008410600084106000854
:100070004106000841060008410600084106000844
:100080004106000841060008410600084106000834
:100090004106000841060008410600084106000824
:1000A0004106000841060008410600084106000814
:1000B0004106000841060008000000004106000853
:1000C0004106000800000000000000004106000892
:1000D0000000000041060008410600080000000082
:1000E0004106000841060008410600080000000023
:1000F0000000000000000000000000000000000000
:0C01000000000000000000005FF808F1A3
:10010C0010B5054C237833B9044B13B10448AFF345
:10011C0000800123237010BD24000020000000008B
:10012C00841C000808B5034B1BB103490348AFF30B
:10013C00008008BD0000000028000020841C00087E
:10014C0080B586B000AF03463960FB7100237B613C
:10015C003B68DB00124A1A44124B1349134800F057
:10016C00F9FC07F10C03124A0021104800F0CCFDF9
:10017C003B7BFA799A4202D101233B610BE07B690C
:10018C0001337B61012000F0B9FA7B69B3F57A7F0A
:10019C00DED100233B613B6918461837BD4680BD54
:1001AC0000000020C4000020680000204000002057
:1001BC008000002080B582B000AF00F03DFA00F066
:1001CC009BF800F015F900F0DDF8474800F07EFCD4
:1001DC00464B08221A61454B00229A60434B002281
:1001EC00DA60424B12221A60414B01221A62404BD8
:1001FC0000225A613E4B00221A613D4B00221A60CC
:10020C003B4B00225A603A4B00229A60384B00223A
:10021C00DA60374B00229A61354B0122DA6134499E
:10022C00314800F08AFB00237B60304B25221A609A
:10023C002E4B1B68DBB200211846FFF781FF4FF4F1
:10024C0000512C4801F0EAF8284B26221A60274B63
:10025C001B68DBB201211846FFF772FF4FF4005107
:10026C00244801F0DBF8214B27221A601F4B1B6836
:10027C00DBB202211846FFF763FF4FF400511D4813
:10028C0001F0CCF8194B28221A60184B1B68DBB212
:10029C0000211846FFF754FF4FF40051154801F0A8
:1002AC00BDF8124B29221A60104B1B68DBB20121DE
:1002BC001846FFF745FF4FF400510E4801F0AEF819
:1002CC000A4B2A221A60094B1B68DBB20221184622
:1002DC00FFF736FF4FF40051064801F09FF87B689A
:1002EC0001337B60A1E700BF4000002068000020C4
:1002FC009C0000200010014080B590B000AF07F1C9
:10030C00180328220021184601F0AEFC3B1D0022E8
:10031C001A605A609A60DA601A610123BB614FF46B
:10032C008033FB6100233B620123BB6202237B63AE
:10033C004FF48033BB634FF4E013FB6307F11803F6
:10034C00184601F085F80346002B01D000F09CF80C
:10035C000F237B600223BB600023FB604FF48063A0
:10036C003B6100237B613B1D0221184601F0F2FA30
:10037C000346002B01D000F087F800BF4037BD4684
:10038C0080BD000080B500AF174B184A1A60164BA1
:10039C0012225A60144B00229A60134B0022DA602E
:1003AC00114B4FF480321A610F4B00225A610E4BE5
:1003BC0000221A760C4B00225A760B4B00229A76AE
:1003CC00094B0022DA76084B00221A77064B0022E2
:1003DC005A77054800F0B6F90346002B01D000F01F
:1003EC0053F800BF80BD00BF4000002000640040F7
:1003FC0080B588B000AF07F1100300221A605A6074
:10040C009A60DA601E4B9B691D4A43F0100393619E
:10041C001B4B9B6903F01003FB60FB68184B9B693B
:10042C00174A43F020039361154B9B6903F020039B
:10043C00BB60BB68124B9B69114A43F00403936188
:10044C000F4B9B6903F004037B607B6800224FF425
:10045C0000510C4800F0CAFF4FF400533B610123DC
:10046C007B610023BB610223FB6107F1100319467A
:10047C00044800F03FFE00BF2037BD4680BD00BFE2
:10048C00001002400010014080B400AF72B600BFF3
:10049C00FEE7000080B485B000AF154B9B69144A91
:1004AC0043F001039361124B9B6903F00103BB60A2
:1004BC00BB680F4BDB690E4A43F08053D3610C4B86
:1004CC00DB6903F080537B607B680A4B5B68FB60E5
:1004DC00FB6823F0E063FB60FB6843F00073FB6098
:1004EC00044AFB68536000BF1437BD4680BC70479C
:1004FC00001002400000014080B588B000AF786069
:10050C0007F1100300221A605A609A60DA607B6867
:10051C001B681C4A934231D11B4BDB691A4A43F0CE
:10052C000073D361184BDB6903F00073FB60FB684D
:10053C00154B9B69144A43F004039361124B9B695E
:10054C0003F00403BB60BB684FF400633B61002302
:10055C007B610023BB6107F1100319460B4800F0C7
:10056C00C9FD4FF480533B6102237B610323FB6184
:10057C0007F110031946054800F0BCFD00BF2037F9
:10058C00BD4680BD006400400010024000080140E0
:10059C0080B400AFFEE780B400AFFEE780B400AFDC
:1005AC00FEE780B400AFFEE780B400AFFEE780B496
:1005BC0000AF00BFBD4680BC704780B400AF00BF29
:1005CC00BD4680BC704780B400AF00BFBD4680BC48
:1005DC00704780B500AF00F075F800BF80BD80B4E7
:1005EC0000AF00BFBD4680BC704700000C480D49F1
:1005FC000D4A002302E0D458C4500433C4188C4272
:10060C00F9D30A4A0A4C002301E013600432A242D7
:10061C00FBD3FFF7E4FF01F003FBFFF7CBFD7047C3
:10062C000000002024000020C41C0008240000202E
:10063C00CC000020FEE7000080B500AF084B1B6823
:10064C00074A43F010031360032000F01FFD0F2036
:10065C0000F008F8FFF71EFF0023184680BD00BF0E
:10066C000020024080B582B000AF7860124B1A684F
:10067C00124B1B7819464FF47A73B3FBF1F3B2FBB0
:10068C00F3F3184600F029FD0346002B01D001239B
:10069C000EE07B680F2B0AD8002279684FF0FF30F0
:1006AC0000F0FFFC064A7B681360002300E0012386
:1006BC0018460837BD4680BD1800002020000020D9
:1006CC001C00002080B400AF054B1B781A46054B6C
:1006DC001B681344034A136000BFBD4680BC7047BF
:1006EC0020000020C800002080B400AF024B1B6823
:1006FC001846BD4680BC7047C800002080B584B049
:10070C0000AF7860FFF7F0FFB8607B68FB60FB68B8
:10071C00B3F1FF3F05D00A4B1B781A46FB68134414
:10072C00FB6000BFFFF7E0FF0246BB68D31AFA6814
:10073C009A42F7D800BF00BF1037BD4680BD00BF3E
:10074C002000002080B584B000AF78607B68002B5F
:10075C0001D10123EDE07B6893F82030DBB2002B54
:10076C0002D17868FFF7C8FE7B681B681A687B6843
:10077C001B6842F001021A60FFF7B6FFF86012E046
:10078C00FFF7B2FF0246FB68D31A0A2B0BD97B6822
:10079C005B6A43F400327B685A627B68052283F8FB
:1007AC0020200123C5E07B681B685B6803F0010314
:1007BC00002BE5D07B681B681A687B681B6822F0ED
:1007CC0002021A60FFF790FFF86012E0FFF78CFF4F
:1007DC000246FB68D31A0A2B0BD97B685B6A43F47D
:1007EC0000327B685A627B68052283F82020012343
:1007FC009FE07B681B685B6803F00203002BE5D16C
:10080C007B681B7E012B08D17B681B681A687B6890
:10081C001B6842F080021A6007E07B681B681A684C
:10082C007B681B6822F080021A607B685B7E012B60
:10083C0008D17B681B681A687B681B6842F0400211
:10084C001A6007E07B681B681A687B681B6822F0DB
:10085C0040021A607B689B7E012B08D17B681B6869
:10086C001A687B681B6842F020021A6007E07B68FC
:10087C001B681A687B681B6822F020021A607B6870
:10088C00DB7E012B08D17B681B681A687B681B68B0
:10089C0022F010021A6007E07B681B681A687B68FC
:1008AC001B6842F010021A607B681B7F012B08D179
:1008BC007B681B681A687B681B6842F008021A6028
:1008CC0007E07B681B681A687B681B6822F00802CB
:1008DC001A607B685B7F012B08D17B681B681A68E8
:1008EC007B681B6842F004021A6007E07B681B6897
:1008FC001A687B681B6822F004021A607B689A688D
:10090C007B68DB681A437B681B691A437B685B69ED
:10091C0042EA03017B685B685A1E7B681B680A43CA
:10092C00DA617B6800225A627B68012283F82020FE
:10093C00002318461037BD4680BD80B487B000AF89
:10094C00786039607B681B687B617B6893F820302A
:10095C00FB74FB7C012B03D0FB7C022B40F0AA80A8
:10096C007B69D3F8003243F001027B69C3F80022A3
:10097C003B685B6903F01F03012202FA03F3FB607F
:10098C007B69D3F81C22FB68DB431A407B69C3F8F4
:10099C001C223B68DB69002B23D17B69D3F80C222A
:1009AC00FB68DB431A407B69C3F80C223B68DB68AD
:1009BC0019043B685B689BB23A68526919437B69BE
:1009CC00483243F832103B689B6819043B681B683B
:1009DC009AB23B685B690A4379694833DB000B4484
:1009EC005A603B68DB69012B22D17B69D3F80C225E
:1009FC00FB681A437B69C3F80C223B681B6819041B
:100A0C003B685B689BB23A68526919437B69483210
:100A1C0043F832103B689B6819043B68DB689AB258
:100A2C003B685B690A4379694833DB000B445A60C5
:100A3C003B689B69002B09D17B69D3F80422FB68C6
:100A4C00DB431A407B69C3F8042207E07B69D3F8C7
:100A5C000422FB681A437B69C3F804223B681B69B8
:100A6C00002B09D17B69D3F81422FB68DB431A40B5
:100A7C007B69C3F8142207E07B69D3F81422FB6866
:100A8C001A437B69C3F814223B681B6A012B07D1FC
:100A9C007B69D3F81C22FB681A437B69C3F81C22C0
:100AAC007B69D3F8003223F001027B69C3F8002282
:100ABC00002306E07B685B6A43F480227B685A6201
:100ACC00012318461C37BD4680BC704780B584B0E6
:100ADC0000AF78607B6893F82030DBB2012B2ED10D
:100AEC007B68022283F820207B681B681A687B686D
:100AFC001B6822F001021A60FFF7F6FDF86012E0A5
:100B0C00FFF7F2FD0246FB68D31A0A2B0BD97B6860
:100B1C005B6A43F400327B685A627B68052283F877
:100B2C002020012312E07B681B685B6803F0010343
:100B3C00002BE5D17B6800225A62002306E07B681B
:100B4C005B6A43F400227B685A6201231846103713
:100B5C00BD4680BD80B489B000AFF860B9607A60E2
:100B6C003B60FB6893F82030FB77FB681B689B6845
:100B7C00BB61FB7F012B03D0FB7F022B40F0B880C5
:100B8C00BB6903F08063002B0AD1BB6903F00063DF
:100B9C00002B05D1BB6903F08053002B00F0A08023
:100BAC00BB691B0E03F003037B617B69022B07D926
:100BBC00FB685B6A43F40002FB685A6201239EE007
:100BCC0001227B699A403B681A60BB689B68002BCA
:100BDC000DD1BB681B685A05BB68DB68F9680968EE
:100BEC001A437B6918331B010B441A600FE0BB6876
:100BFC005B68DA00BB689B681A43BB68DB68F96802
:100C0C0009681A437B6918331B010B441A60FB6893
:100C1C001968BB681A697B6918331B010B440433D0
:100C2C001A60BB681B7D012B11D1FB681A687B69AC
:100C3C0018331B01134404331B68FA68116843F41E
:100C4C0080727B6918331B010B4404331A607B6878
:100C5C0007331B781A067B6806331B781B041A4370
:100C6C007B6805331B781B0213437A6804321278B5
:100C7C001046FA68116843EA00027B691B010B44B9
:100C8C0003F5C6731A607B6803331B781A067B68FE
:100C9C0002331B781B041A437B6801331B781B023D
:100CAC0013437A6812781046FA68116843EA000216
:100CBC007B691B010B4403F5C4731A60FB681A684B
:100CCC007B6918331B0113441B68FA68116843F0E5
:100CDC0001027B6918331B010B441A6000230EE0E0
:100CEC00FB685B6A43F40012FB685A62012306E05E
:100CFC00FB685B6A43F48022FB685A620123184646
:100D0C002437BD4680BC704780B487B000AFF86014
:100D1C00B9607A603B60FB6893F82030FB75FB7D13
:100D2C00012B03D0FB7D022B40F0F380BB68002B22
:100D3C000ED1FB681B68DB6803F00303002B16D194
:100D4C00FB685B6A43F40012FB685A620123E7E01C
:100D5C00FB681B681B6903F00303002B07D1FB68BE
:100D6C005B6A43F40012FB685A620123D8E0FB680B
:100D7C001A68BB681B331B0113441B6803F0040285
:100D8C007B689A607B689B68002B0CD1FB681A68A7
:100D9C00BB681B331B0113441B685B0DC3F30A02B6
:100DAC007B681A600BE0FB681A68BB681B331B017D
:100DBC0013441B68DB0823F060427B685A60FB68B5
:100DCC001A68BB681B331B0113441B6803F0020237
:100DDC007B68DA60FB681A68BB681B331B01134421
:100DEC0004331B6803F00F027B681A61FB681A68F6
:100DFC00BB681B331B01134404331B681B0ADAB298
:100E0C007B689A61FB681A68BB681B331B0113442F
:100E1C0004331B681B0C9AB27B685A61FB681A6816
:100E2C00BB681B01134403F5DC731B68DAB23B6827
:100E3C001A70FB681A68BB681B01134403F5DC735A
:100E4C001B681A0A3B680133D2B21A70FB681A6825
:100E5C00BB681B01134403F5DC731B681A0C3B685D
:100E6C000233D2B21A70FB681A68BB681B011344B8
:100E7C0003F5DC731B681A0E3B680333D2B21A708D
:100E8C00FB681A68BB681B01134403F5DE731A6810
:100E9C003B680433D2B21A70FB681A68BB681B013A
:100EAC00134403F5DE731B681A0A3B680533D2B290
:100EBC001A70FB681A68BB681B01134403F5DE73D8
:100ECC001B681A0C3B680633D2B21A70FB681A689E
:100EDC00BB681B01134403F5DE731B681A0E3B68D9
:100EEC000733D2B21A70BB68002B08D1FB681B68A1
:100EFC00DA68FB681B6842F02002DA6007E0FB68E6
:100F0C001B681A69FB681B6842F020021A610023F7
:100F1C0006E0FB685B6A43F48022FB685A6201239B
:100F2C0018461C37BD4680BC7047000080B485B0A5
:100F3C0000AF78607B6803F00703FB600C4BDB6849
:100F4C00BB60BA684FF6FF031340BB60FB681A0224
:100F5C00BB68134343F0BF6343F40033BB60044AE4
:100F6C00BB68D36000BF1437BD4680BC704700BF60
:100F7C0000ED00E080B400AF044BDB681B0A03F00B
:100F8C0007031846BD4680BC704700BF00ED00E06B
:100F9C0080B483B000AF03463960FB7197F907301A
:100FAC00002B0ADB3B68DAB20C4997F907301201C7
:100FBC00D2B20B4483F800230AE03B68DAB208494A
:100FCC00FB7903F00F03043B1201D2B20B441A76E7
:100FDC0000BF0C37BD4680BC704700BF00E100E08D
:100FEC0000ED00E080B489B000AFF860B9607A60C1
:100FFC00FB6803F00703FB61FB69C3F10703042BD8
:10100C0028BF0423BB61FB690433062B02D9FB699F
:10101C00033B00E000237B614FF0FF32BB6902FA17
:10102C0003F3DA43BB681A407B699A404FF0FF31F7
:10103C007B6901FA03F3D9437B680B4013431846D1
:10104C002437BD4680BC704780B582B000AF786055
:10105C007B68013BB3F1807F01D301230FE00A4A87
:10106C007B68013B53600F214FF0FF30FFF790FF7F
:10107C00054B00229A60044B07221A600023184685
:10108C000837BD4680BD00BF10E000E080B582B0DF
:10109C0000AF78607868FFF749FF00BF0837BD469E
:1010AC0080BD80B586B000AF0346B9607A60FB7333
:1010BC0000237B61FFF75EFF78617A68B968786915
:1010CC00FFF790FF024697F90F3011461846FFF7CD
:1010DC005FFF00BF1837BD4680BD80B582B000AF42
:1010EC0078607868FFF7B0FF034618460837BD46AE
:1010FC0080BD000080B48BB000AF786039600023F5
:10110C007B6200233B6261E101227B6A02FA03F3FA
:10111C00FB613B681B68FA691340BB61BA69FB69E8
:10112C009A4240F050813B685B68974A93425ED08C
:10113C00954A934275D8954A934258D0934A934214
:10114C006FD8934A934252D0914A934269D8914AAC
:10115C0093424CD08F4A934263D88F4A934246D0E5
:10116C008D4A93425DD8122B2AD8122B59D801A242
:10117C0052F823F0FB110008D5110008E711000804
:10118C00291200082F1200082F1200082F12000835
:10119C002F1200082F1200082F1200082F1200081F
:1011AC002F1200082F1200082F1200082F1200080F
:1011BC002F1200082F120008DD110008F111000891
:1011CC00764A934213D02CE03B68DB683B6229E003
:1011DC003B68DB6804333B6224E03B68DB68083324
:1011EC003B621FE03B68DB680C333B621AE03B68F8
:1011FC009B68002B02D104233B6213E03B689B6885
:10120C00012B05D108233B627B68FA691A6109E05E
:10121C0008233B627B68FA695A6103E000233B6256
:10122C0000E000BFBB69FF2B01D87B6801E07B6845
:10123C0004337B61BB69FF2B02D87B6A9B0002E005
:10124C007B6A083B9B003B617B691A680F213B69F9
:10125C0001FA03F3DB431A40396A3B6901FA03F3E1
:10126C001A437B691A603B685B6803F08053002B60
:10127C0000F0A9804A4B9B69494A43F001039361F2
:10128C00474B9B6903F00103BB60BB68454A7B6A13
:10129C009B08023352F82330FB607B6A03F0030394
:1012AC009B000F2202FA03F3DB43FA681340FB6046
:1012BC007B683D4A93420DD07B683C4A934207D0F1
:1012CC007B683B4A934201D1022304E0032302E0F2
:1012DC00012300E000237A6A02F00302920093409B
:1012EC00FA681343FB602F497B6A9B080233FA6848
:1012FC0041F823203B685B6803F48033002B06D055
:10130C002C4B1A682B49BB6913430B6006E0294B25
:10131C001A68BB69DB43274913400B603B685B6869
:10132C0003F40033002B06D0224B5A682149BB69C9
:10133C0013434B6006E01F4B5A68BB69DB431D49E6
:10134C0013404B603B685B6803F48013002B06D0A2
:10135C00184B9A681749BB6913438B6006E0154B11
:10136C009A68BB69DB43134913408B603B685B682D
:10137C0003F40013002B1FD00E4BDA680D49BB6928
:10138C001343CB601FE000BF00003210000031108F
:10139C00000022100000211000001210000011109B
:1013AC00001002400000014000080140000C014008
:1013BC0000100140000401400B4BDA68BB69DB43B1
:1013CC0009491340CB607B6A01337B623B681A6826
:1013DC007B6A22FA03F3002B7FF496AE00BF00BFAA
:1013EC002C37BD4680BC70470004014080B483B0EC
:1013FC0000AF78600B467B8013467B707B78002BAC
:10140C0003D07A887B681A6103E07B881A047B68B6
:10141C001A6100BF0C37BD4680BC704780B485B0E4
:10142C0000AF78600B467B807B68DB68FB607A885A
:10143C00FB6813401A04FB68D9437B880B401A43A2
:10144C007B681A6100BF1437BD4680BC7047000032
:10145C0080B586B000AF78607B68002B01D101238A
:10146C0072E27B681B6803F00103002B00F087809D
:10147C00924B5B6803F00C03042B0CD08F4B5B6816
:10148C0003F00C03082B12D18C4B5B6803F48033F4
:10149C00B3F5803F0BD1894B1B6803F40033002B51
:1014AC006CD07B685B68002B68D101234CE27B68B5
:1014BC005B68B3F5803F06D1804B1B687F4A43F4D1
:1014CC00803313602EE07B685B68002B0CD17B4B68
:1014DC001B687A4A23F480331360784B1B68774A75
:1014EC0023F4802313601DE07B685B68B3F5A02FA9
:1014FC000CD1724B1B68714A43F4802313606F4B01
:10150C001B686E4A43F4803313600BE06B4B1B6813
:10151C006A4A23F480331360684B1B68674A23F4D0
:10152C00802313607B685B68002B13D0FFF7DCF81B
:10153C00386108E0FFF7D8F802463B69D31A642BF0
:10154C0001D9032300E25D4B1B6803F40033002B2D
:10155C00F0D014E0FFF7C8F8386108E0FFF7C4F8E2
:10156C0002463B69D31A642B01D90323ECE1534B9C
:10157C001B6803F40033002BF0D100E000BF7B6844
:10158C001B6803F00203002B63D04C4B5B6803F029
:10159C000C03002B0BD0494B5B6803F00C03082B9E
:1015AC001CD1464B5B6803F48033002B16D1434BA4
:1015BC001B6803F00203002B05D07B681B69012B11
:1015CC0001D00123C0E13D4B1B6823F0F8027B687E
:1015DC005B69DB00394913430B603AE07B681B699C
:1015EC00002B20D0364B01221A60FFF77DF83861B2
:1015FC0008E0FFF779F802463B69D31A022B01D9B0
:10160C000323A1E12D4B1B6803F00203002BF0D048
:10161C002A4B1B6823F0F8027B685B69DB002749C7
:10162C0013430B6015E0264B00221A60FFF75CF8A1
:10163C00386108E0FFF758F802463B69D31A022BD1
:10164C0001D9032380E11D4B1B6803F00203002B1F
:10165C00F0D17B681B6803F00803002B3AD07B6841
:10166C009B69002B19D0174B01221A60FFF73CF82D
:10167C00386108E0FFF738F802463B69D31A022BB1
:10168C0001D9032360E10D4B5B6A03F00203002BCD
:10169C00F0D0012000F0A6FA1CE00A4B00221A60E0
:1016AC00FFF722F838610FE0FFF71EF802463B699E
:1016BC00D31A022B08D9032346E100BF00100240C5
:1016CC000000424280044242924B5B6A03F00203E8
:1016DC00002BE9D17B681B6803F00403002B00F09E
:1016EC00A6800023FB758B4BDB6903F08053002B2A
:1016FC000DD1884BDB69874A43F08053D361854B0E
:10170C00DB6903F08053BB60BB680123FB75824B24
:10171C001B6803F48073002B18D17F4B1B687E4A27
:10172C0043F480731360FEF7DFFF386108E0FEF7C7
:10173C00DBFF02463B69D31A642B01D9032303E177
:10174C00754B1B6803F48073002BF0D07B68DB684F
:10175C00012B06D16F4B1B6A6E4A43F001031362D7
:10176C002DE07B68DB68002B0CD16A4B1B6A694A45
:10177C0023F001031362674B1B6A664A23F00403D0
:10178C0013621CE07B68DB68052B0CD1614B1B6A78
:10179C00604A43F0040313625E4B1B6A5D4A43F0DC
:1017AC00010313620BE05B4B1B6A5A4A23F00103E3
:1017BC001362584B1B6A574A23F0040313627B686D
:1017CC00DB68002B15D0FEF78FFF38610AE0FEF7BF
:1017DC008BFF02463B69D31A41F28832934201D9FE
:1017EC000323B1E04B4B1B6A03F00203002BEED03A
:1017FC0014E0FEF779FF38610AE0FEF775FF024648
:10180C003B69D31A41F28832934201D903239BE0FE
:10181C00404B1B6A03F00203002BEED1FB7D012B26
:10182C0005D13C4BDB693B4A23F08053D3617B6889
:10183C00DB69002B00F08780364B5B6803F00C03F0
:10184C00082B61D07B68DB69022B46D1334B00221D
:10185C001A60FEF749FF386108E0FEF745FF0246C3
:10186C003B69D31A022B01D903236DE0294B1B686A
:10187C0003F00073002BF0D17B681B6AB3F5803F3B
:10188C0008D1244B5B6823F400327B689B682149A8
:10189C0013434B601F4B5B6823F474127B68196A0B
:1018AC007B685B6A0B431B4913434B601B4B012248
:1018BC001A60FEF719FF386108E0FEF715FF0246C3
:1018CC003B69D31A022B01D903233DE0114B1B6852
:1018DC0003F00073002BF0D035E0104B00221A609F
:1018EC00FEF702FF386108E0FEF7FEFE02463B6998
:1018FC00D31A022B01D9032326E0064B1B6803F0F5
:10190C000073002BF0D11EE07B68DB69012B07D143
:10191C00012319E0001002400070004060004242B8
:10192C000B4B5B68FB60FB6803F480327B681B6AC3
:10193C009A4206D1FB6803F470127B685B6A9A4288
:10194C0001D0012300E0002318461837BD4680BDA6
:10195C000010024080B584B000AF786039607B68BD
:10196C00002B01D10123D0E06A4B1B6803F0070365
:10197C003A689A4210D9674B1B6823F007026549F5
:10198C003B6813430B60634B1B6803F007033A6817
:10199C009A4201D00123B8E07B681B6803F0020374
:1019AC00002B20D07B681B6803F00403002B05D0B0
:1019BC00594B5B68584A43F4E06353607B681B687F
:1019CC0003F00803002B05D0534B5B68524A43F4D9
:1019DC0060535360504B5B6823F0F0027B689B684C
:1019EC004D4913434B607B681B6803F00103002BCC
:1019FC0040D07B685B68012B07D1474B1B6803F415
:101A0C000033002B15D101237FE07B685B68022B30
:101A1C0007D1414B1B6803F00073002B09D1012344
:101A2C0073E03D4B1B6803F00203002B01D1012333
:101A3C006BE0394B5B6823F003027B685B683649CB
:101A4C0013434B60FEF750FEF8600AE0FEF74CFEC5
:101A5C000246FB68D31A41F28832934201D9032320
:101A6C0053E02D4B5B6803F00C027B685B689B00BA
:101A7C009A42EBD1274B1B6803F007033A689A4252
:101A8C0010D2244B1B6823F0070222493B681343F6
:101A9C000B60204B1B6803F007033A689A4201D095
:101AAC00012332E07B681B6803F00403002B08D091
:101ABC00194B5B6823F4E0627B68DB6816491343BF
:101ACC004B607B681B6803F00803002B09D0124B9A
:101ADC005B6823F460527B681B69DB000E4913437F
:101AEC004B6000F021F802460B4B5B681B0903F0BE
:101AFC000F030A49CB5C22FA03F3094A1360094B22
:101B0C001B681846FEF7AEFD002318461037BD467D
:101B1C0080BD00BF0020024000100240AC1C000839
:101B2C00180000201C00002090B48AB000AF294B94
:101B3C003C1D0FCB84E80F0040F201233B800023B7
:101B4C00FB610023BB6100237B6200237B610023CC
:101B5C003B62214B5B68FB61FB6903F00C03042BBC
:101B6C0002D0082B03D02BE01C4B3B622BE0FB6913
:101B7C009B0C03F00F0328333B4413F8243C7B618C
:101B8C00FB6903F48033002B12D0134B5B685B0CA6
:101B9C0003F0010328333B4413F8283CBB617B69F9
:101BAC000E4A03FB02F2BB69B2FBF3F37B6204E067
:101BBC007B690B4A02FB03F37B627B6A3B6202E0AC
:101BCC00064B3B6200BF3B6A18462837BD4690BCAB
:101BDC00704700BF9C1C00080010024000127A00E5
:101BEC0000093D0080B485B000AF78600A4B1B68DB
:101BFC000A4AA2FB03235B0A7A6802FB03F3FB602D
:101C0C0000BFFB685A1EFA60002BF9D100BF00BF61
:101C1C001437BD4680BC704718000020D34D6210AD
:101C2C0070B500260C4D0D4C641BA410A64209D1B6
:101C3C0000F022F800260A4D0A4C641BA410A642A0
:101C4C0005D170BD55F8043B98470136EEE755F8C1
:101C5C00043B98470136F2E7BC1C0008BC1C00088A
:101C6C00BC1C0008C01C000803460244934200D16F
:101C7C00704703F8011BF9E7F8B500BFF8BC08BCC6
:101C8C009E467047F8B500BFF8BC08BC9E4670472E
:101C9C0002030405060708090A0B0C0D0E0F1010A1
:101CAC000000000000000000010203040607080900
:041CBC0031010008EA
:041CC0000D0100080A
:101CC4000102030405060708090A0B0C0D0E0F1088
:101CD40011121314151617180024F4001000000034
:041CE40001000000FB
:04000005080005F9F1
:00000001FF
